S0110000657862696B652D66772E7372656391
S113000055C06DC086C06BC06AC069C068C067C097
S113001066C065C064C063C062C061C060C05FC0C8
S11300205EC005010902A1010901A1000509190128
S113003029031500250195037501810295017505B4
S1130040810305010930093109381581257F7508B7
S113005095038106C0C009022200010100800A093B
S11300600400000103000000092101010001223401
S11300700007058103080064120110010000000854
S1130080C016E8030001010200010C034D006F00DB
S113009075007300650012036F0062006400650060
S11300A076002E00610074000403090411241FBEAD
S11300B0CFEDCDBF10E0A0E6B0E0E2E4F7E002C08F
S11300C005900D92A436B107D9F720E0A4E6B0E07C
S11300D001C01D92A23AB207E1F7B7D130C390CF65
S11300E0A82FB92F80E090E041E050EA609530E01D
S11300F009C02D9182279795879510F0842795271D
S1130100305EC8F36F5FA8F30895EADF8D939D9383
S11301100895CF93CFB7CF93C395C99BE9F7C99BF4
S113012009C0C99B07C0C99B05C0C99B03C0C99B23
S113013001C0A3C0DF93C0918500DD27C457DF4F02
S1130140C99B02C0DF91EBCF2F930F931F9309B389
S11301502FEF01FB20F94F933F9319B34FEF012782
S113016001FB21F93BE031C04E7F012F19B321601F
S113017028C0102F4D7F2260000009B329C04B7F97
S11301802460012F000019B32BC019B3477F2860E6
S11301902AC04F7E09B320612CC04F7D19B3206261
S11301A02FC04F7B09B3206432C0422709B349935F
S11301B04FEF0000102711FB20F919B31370C9F198
S11301C0297F91F2012701FB21F909B3237F89F2E9
S11301D0315058F1102711FB22F919B3277E79F217
S11301E0012701FB23F92F7C81F209B3102711FBAE
S11301F024F92F7971F200C019B3012701FB25F905
S11302002F7359F200C009B3102711FB26F92230CD
S113021040F200C019B3012701FB27F9243028F666
S11302204F77206819B30000F9CF10E11ABF0027F7
S113023019C03B503195C31BD04010E11ABF08814F
S1130240033CF9F00B34E9F0209183001981110F7C
S11302501213EDCF4A81441F093641F10D3211F0DA
S1130260013E29F700938A003F914F911F910F910E
S11302702F91DF91CAB7C4FD4FCFCF91CFBFCF919C
S1130280189520918A00222379F310918800112374
S113029069F534306AF1309388002093840010911A
S11302A085003BE0311B3093850022C0009188001B
S11302B00130E4F40AE54F7049F43091630034FDF1
S11302C019C000936300CCE6D0E018C030917700E9
S11302D034FD10C000937700C8E7D0E00FC0279525
S11302E0A8F45150A9F4220F0000F9CF4AE503C045
S11302F042ED01C0432FC4E1D0E032E01AB31360F1
S1130300D99A1ABB0BB320E413E05F93012756E09C
S11303100BBB279520F4515021F4220FF9CF01276C
S113032056E000003B5A0BBBD0F2279528F45150FD
S113033029F4220F0000F9CF012756E027950BBBC3
S113034020F4515021F4220FF9CF012756E02991CE
S113035033230BBB21F60C7F10918900110FC6517A
S1130360D0400BBB11F01093830010E11ABF026060
S11303701AB31C7F402F4C7F5F9100C000C00BBBA1
S11303801ABB4BBB71CF40916500509166001416A7
S113039015061CF420E230E002C020EE3FEF240FEB
S11303A0351F022E232F000C221F330B000C221F9B
S11303B0331F209368008091600090916100820F48
S11303C0911D9093610080936000181619061CF427
S11303D020E230E002C020EE3FEF820F931F082E90
S11303E0892F000C881F990B000C881F991F80937C
S11303F06900481B510950936600409365000895B5
S1130400FC01908190769032E1F48181813041F455
S113041087E690E0909387008093860084E00895B7
S1130420823041F484E690E09093870080938600C4
S113043081E008958A3039F483818093640080E0F8
S1130440089580E0089580E008959EE088E10FB665
S1130450F894A89581BD0FBE91BD64D18AB3826022
S11304608ABB80E007C0A895E7EBFBE03197F1F782
S113047000C000008150B9F78AB38D7F8ABB78949D
S1130480A89557D08091770084FFFACF7CDF64E091
S113049087E690E04AD0F4CFDC01862F6623E1F0B2
S11304A0E0918600F091870090916B0096FF09C05F
S11304B0962F24912C933196915011969111F9CF46
S11304C007C0962F21912C93915011969111FACF38
S11304D0F0938700E093860008950F931F93CF93C2
S11304E0DC01C62F8A01FA01808184FF05C0918155
S11304F088E88927818303C08AE5FA018083A801FB
S11305004E5F5F4F9C2FFA012C91208391501196DE
S113051031969111F9CF6C2FCA01F7DDCC5FF80148
S1130520C083CF911F910F91089547E750E0D5DF25
S11305300895CF93DF938091880083500AF4B6C066
S1130540909185002CE030E0291B3109E901C45762
S1130550DF4F909184009D3209F0A6C0883009F0E5
S1130560A3C083EC80936C008AE5809363001092AF
S11305706B008881807619F0CE0142DF8CC09A81AD
S1130580109275008981811106C01092760025E7CA
S113059030E082E07CC0853031F49093890025E717
S11305A030E080E074C0863009F051C08B81813026
S11305B041F488E790E0909387008093860082E17D
S11305C042C0823041F486E590E0909387008093A6
S11305D0860082E238C08330F9F48A81811108C030
S11305E088EA90E0909387008093860084E02BC093
S11305F0813041F486E990E09093870080938600EF
S113060082E121C08230E1F48AE890E0909387008F
S1130610809386008CE017C0813241F488E690E034
S1130620909387008093860089E00DC0823251F454
S113063082E290E0909387008093860084E303C075
S113064080E001C080E090E490936B0024C0883087
S113065099F0893031F490938B0025E730E080E005
S113066016C08A3069F08B3079F48BE4809378007B
S113067025E730E080E00BC02BE830E081E007C0E4
S113068025E730E081E003C025E730E080E03093E7
S11306908700209386009F81911104C09E81981742
S11306A008F4892F8093620010928800809163007F
S11306B084FF29C0809162008F3F29F1893010F4B2
S11306C0682F01C068E0861B80936200ECE6F0E0CE
S11306D0908188E8892780838DE690E0DDDEC82F4D
S11306E0893058F4682F8DE690E00FDDCC5FCC3074
S11306F040F48FEF8093620004C08FEF8093620018
S1130700CEE1C093630094E104C089B3837039F4EB
S113071091509111FACF1092890010928300DF91C9
S1130720CF91089582B3816082BB8BB780618BBF08
S1130730E7E7F0E08BE481838AE580830895F89409
S1050740FFCFE5
S1070742C001FF5A95
S9030000FC
