:100000004AC062C07BC060C05FC05EC05DC05CC0F3
:100010005BC05AC059C058C057C056C055C054C024
:1000200053C005010905A101A10005091901290114
:10003000150025FF750895018102C0C00902220044
:10004000010100800A0904000001030000000921E9
:1000500001010001221A0007058103080064120152
:10006000100100000008C016DA05000101020001BD
:10007000120345007800620069006B0065006800AB
:10008000770010033000330076006D0061007400CB
:1000900065000403090411241FBECFEDCDBF10E09D
:1000A000A0E6B0E0EEE7F6E002C005900D92A236C1
:1000B000B107D9F720E0A2E6B0E001C01D92A9394E
:1000C000B207E1F757D1D9C29BCFA82FB92F80E053
:1000D00090E041E050EA609530E009C02D91822720
:1000E0009795879510F084279527305EC8F36F5F4A
:1000F000A8F30895EADF8D939D930895CF93CFB72A
:10010000CF93C395C99BE9F7C99B09C0C99B07C099
:10011000C99B05C0C99B03C0C99B01C0A3C0DF9395
:10012000C0917C00DD27CD57DF4FC99B02C0DF9116
:10013000EBCF2F930F931F9309B32FEF01FB20F900
:100140004F933F9319B34FEF012701FB21F93BE098
:1001500031C04E7F012F19B3216028C0102F4D7F71
:100160002260000009B329C04B7F2460012F0000EA
:1001700019B32BC019B3477F28602AC04F7E09B33B
:1001800020612CC04F7D19B320622FC04F7B09B373
:10019000206432C0422709B349934FEF0000102773
:1001A00011FB20F919B31370C9F1297F91F20127CE
:1001B00001FB21F909B3237F89F2315058F110274F
:1001C00011FB22F919B3277E79F2012701FB23F9EC
:1001D0002F7C81F209B3102711FB24F92F7971F2DA
:1001E00000C019B3012701FB25F92F7359F200C094
:1001F00009B3102711FB26F9223040F200C019B3D1
:10020000012701FB27F9243028F64F77206819B31E
:100210000000F9CF10E11ABF002719C03B503195FB
:10022000C31BD04010E11ABF0881033CF9F00B3426
:10023000E9F020917A001981110F1213EDCF4A8154
:10024000441F093641F10D3211F0013E29F70093A8
:1002500081003F914F911F910F912F91DF91CAB76C
:10026000C4FD4FCFCF91CFBFCF9118952091810082
:10027000222379F310917F00112369F534306AF15C
:1002800030937F0020937B0010917C003BE0311B7A
:1002900030937C0022C000917F000130E4F40AE535
:1002A0004F7049F43091610034FD19C00093610032
:1002B000C3E6D0E018C030916E0034FD10C000934A
:1002C0006E00CFE6D0E00FC02795A8F45150A9F4F6
:1002D000220F0000F9CF4AE503C042ED01C0432FD1
:1002E000C4E1D0E032E01AB31360D99A1ABB0BB361
:1002F00020E413E05F93012756E00BBB279520F421
:10030000515021F4220FF9CF012756E000003B5A4B
:100310000BBBD0F2279528F4515029F4220F00008E
:10032000F9CF012756E027950BBB20F4515021F45B
:10033000220FF9CF012756E0299133230BBB21F679
:100340000C7F10918000110FC651D0400BBB11F0F3
:1003500010937A0010E11ABF02601AB31C7F402F7D
:100360004C7F5F9100C000C00BBB1ABB4BBB71CF71
:1003700080E00895CF93DF931F92CDB7DD278DE204
:1003800089839EE088E10FB6F894A89581BD0FBEE1
:1003900091BD8AB38F778ABB8BB380688BBB60D1EA
:1003A000789410E0A89563D0CF9908C0111106C0C9
:1003B00061E0CE01019657D011E002C0CF9910E064
:1003C0002FE58AEE90E0215080409040E1F700C098
:1003D0000000E8CFDC01862F6623E1F0E0917D008C
:1003E000F0917E009091620096FF09C0962F2491B3
:1003F0002C933196915011969111F9CF07C0962FF9
:1004000021912C93915011969111FACFF0937E0087
:10041000E0937D0008950F931F93CF93DC01C62FC7
:100420008A01FA01808184FF05C0918188E88927CB
:10043000818303C08AE5FA018083A8014E5F5F4F84
:100440009C2FFA012C912083915011963196911195
:10045000F9CF6C2FCA014EDECC5FF801C083CF917B
:100460001F910F9108954EE650E0D5DF0895CF9388
:10047000DF9380917F0083500AF4B6C090917C0096
:100480002CE030E0291B3109E901CD57DF4F909175
:100490007B009D3209F0A6C0883009F0A3C083EC30
:1004A000809363008AE580936100109262008881E6
:1004B000807619F0CE015CDF8CC09A8110926C00BE
:1004C0008981811106C010926D002CE630E082E037
:1004D0007CC0853031F4909380002CE630E080E0E1
:1004E00074C0863009F051C08B81813041F48EE5B3
:1004F00090E090937E0080937D0082E142C0823044
:1005000041F48CE390E090937E0080937D0082E242
:1005100038C08330F9F48A81811108C082E990E003
:1005200090937E0080937D0084E02BC0813041F465
:1005300082E890E090937E0080937D0080E121C06E
:100540008230E1F480E790E090937E0080937D001C
:1005500082E117C0813241F48EE490E090937E00F6
:1005600080937D0089E00DC0823251F482E290E0F8
:1005700090937E0080937D008AE103C080E001C0FB
:1005800080E090E49093620024C0883099F0893034
:1005900031F4909382002CE630E080E016C08A307F
:1005A00069F08B3079F48BE480936F002CE630E0B7
:1005B00080E00BC022E830E081E007C02CE630E0AC
:1005C00081E003C02CE630E080E030937E00209391
:1005D0007D009F81911104C09E81981708F4892F96
:1005E0008093600010927F008091610084FF29C099
:1005F000809160008F3F29F1893010F4682F01C08D
:1006000068E0861B80936000E3E6F0E0908188E874
:100610008927808384E690E0DDDEC82F893058F496
:10062000682F84E690E066DDCC5FCC3040F48FEF3D
:100630008093600004C08FEF80936000CEE1C09390
:10064000610094E104C089B3837039F49150911131
:10065000FACF1092800010927A00DF91CF91089526
:1006600082B3816082BB8BB780618BBFEEE6F0E026
:0E0670008BE481838AE580830895F894FFCFA0
:02067E00FF5A21
:00000001FF
